{
  "contractName": "Existence",
  "abi": [
    {
      "constant": false,
      "inputs": [],
      "name": "renounceOwnership",
      "outputs": [],
      "payable": false,
      "stateMutability": "nonpayable",
      "type": "function",
      "signature": "0x715018a6"
    },
    {
      "constant": true,
      "inputs": [],
      "name": "isOwner",
      "outputs": [
        {
          "name": "",
          "type": "bool"
        }
      ],
      "payable": false,
      "stateMutability": "view",
      "type": "function",
      "signature": "0x8f32d59b"
    },
    {
      "constant": false,
      "inputs": [
        {
          "name": "newOwner",
          "type": "address"
        }
      ],
      "name": "transferOwnership",
      "outputs": [],
      "payable": false,
      "stateMutability": "nonpayable",
      "type": "function",
      "signature": "0xf2fde38b"
    },
    {
      "inputs": [],
      "payable": false,
      "stateMutability": "nonpayable",
      "type": "constructor",
      "signature": "constructor"
    },
    {
      "anonymous": false,
      "inputs": [
        {
          "indexed": true,
          "name": "_from",
          "type": "address"
        },
        {
          "indexed": false,
          "name": "_hash",
          "type": "string"
        }
      ],
      "name": "LogCreateExistence",
      "type": "event",
      "signature": "0xeb55a622d3a07c53b40d70f9357c78a8dfd290564045dafcd82eb73fefd87133"
    },
    {
      "anonymous": false,
      "inputs": [
        {
          "indexed": true,
          "name": "previousOwner",
          "type": "address"
        },
        {
          "indexed": true,
          "name": "newOwner",
          "type": "address"
        }
      ],
      "name": "OwnershipTransferred",
      "type": "event",
      "signature": "0x8be0079c531659141344cd1fd0a4f28419497f9722a3daafe3b4186f6b6457e0"
    },
    {
      "constant": false,
      "inputs": [],
      "name": "toggleEStop",
      "outputs": [],
      "payable": false,
      "stateMutability": "nonpayable",
      "type": "function",
      "signature": "0x5aba4878"
    },
    {
      "constant": false,
      "inputs": [
        {
          "name": "_existenceHash",
          "type": "string"
        }
      ],
      "name": "addExistence",
      "outputs": [],
      "payable": false,
      "stateMutability": "nonpayable",
      "type": "function",
      "signature": "0xde9f7610"
    },
    {
      "constant": true,
      "inputs": [],
      "name": "getTotalExistences",
      "outputs": [
        {
          "name": "totalExistences",
          "type": "uint256"
        }
      ],
      "payable": false,
      "stateMutability": "view",
      "type": "function",
      "signature": "0x512f2b40"
    },
    {
      "constant": true,
      "inputs": [
        {
          "name": "_id",
          "type": "uint256"
        }
      ],
      "name": "getSingleExistanceHash",
      "outputs": [
        {
          "name": "_ipfsHash",
          "type": "string"
        },
        {
          "name": "dateTimestamp",
          "type": "uint256"
        }
      ],
      "payable": false,
      "stateMutability": "view",
      "type": "function",
      "signature": "0xc6a7c133"
    }
  ],
  "bytecode": "0x608060405234801561001057600080fd5b50336000806101000a81548173ffffffffffffffffffffffffffffffffffffffff021916908373ffffffffffffffffffffffffffffffffffffffff1602179055506000809054906101000a900473ffffffffffffffffffffffffffffffffffffffff1673ffffffffffffffffffffffffffffffffffffffff16600073ffffffffffffffffffffffffffffffffffffffff167f8be0079c531659141344cd1fd0a4f28419497f9722a3daafe3b4186f6b6457e060405160405180910390a36000600260006101000a81548160ff021916908315150217905550610923806100f76000396000f3fe608060405260043610610083576000357c0100000000000000000000000000000000000000000000000000000000900463ffffffff168063512f2b40146100885780635aba4878146100b3578063715018a6146100ca5780638f32d59b146100e1578063c6a7c13314610110578063de9f7610146101cb578063f2fde38b14610293575b600080fd5b34801561009457600080fd5b5061009d6102e4565b6040518082815260200191505060405180910390f35b3480156100bf57600080fd5b506100c861032e565b005b3480156100d657600080fd5b506100df61036d565b005b3480156100ed57600080fd5b506100f661043f565b604051808215151515815260200191505060405180910390f35b34801561011c57600080fd5b506101496004803603602081101561013357600080fd5b8101908080359060200190929190505050610496565b6040518080602001838152602001828103825284818151815260200191508051906020019080838360005b8381101561018f578082015181840152602081019050610174565b50505050905090810190601f1680156101bc5780820380516001836020036101000a031916815260200191505b50935050505060405180910390f35b3480156101d757600080fd5b50610291600480360360208110156101ee57600080fd5b810190808035906020019064010000000081111561020b57600080fd5b82018360208201111561021d57600080fd5b8035906020019184600183028401116401000000008311171561023f57600080fd5b91908080601f016020809104026020016040519081016040528093929190818152602001838380828437600081840152601f19601f8201169050808301925050505050505091929192905050506105ec565b005b34801561029f57600080fd5b506102e2600480360360208110156102b657600080fd5b81019080803573ffffffffffffffffffffffffffffffffffffffff169060200190929190505050610833565b005b6000600160003373ffffffffffffffffffffffffffffffffffffffff1673ffffffffffffffffffffffffffffffffffffffff16815260200190815260200160002060000154905090565b61033661043f565b151561034157600080fd5b600260009054906101000a900460ff1615600260006101000a81548160ff021916908315150217905550565b61037561043f565b151561038057600080fd5b600073ffffffffffffffffffffffffffffffffffffffff166000809054906101000a900473ffffffffffffffffffffffffffffffffffffffff1673ffffffffffffffffffffffffffffffffffffffff167f8be0079c531659141344cd1fd0a4f28419497f9722a3daafe3b4186f6b6457e060405160405180910390a360008060006101000a81548173ffffffffffffffffffffffffffffffffffffffff021916908373ffffffffffffffffffffffffffffffffffffffff160217905550565b60008060009054906101000a900473ffffffffffffffffffffffffffffffffffffffff1673ffffffffffffffffffffffffffffffffffffffff163373ffffffffffffffffffffffffffffffffffffffff1614905090565b60606000600160003373ffffffffffffffffffffffffffffffffffffffff1673ffffffffffffffffffffffffffffffffffffffff1681526020019081526020016000206001016000848152602001908152602001600020600101600160003373ffffffffffffffffffffffffffffffffffffffff1673ffffffffffffffffffffffffffffffffffffffff168152602001908152602001600020600101600085815260200190815260200160002060020154818054600181600116156101000203166002900480601f0160208091040260200160405190810160405280929190818152602001828054600181600116156101000203166002900480156105dc5780601f106105b1576101008083540402835291602001916105dc565b820191906000526020600020905b8154815290600101906020018083116105bf57829003601f168201915b5050505050915091509150915091565b60011515600260009054906101000a900460ff1615151415151561060f57600080fd5b6060819050602e815114151561062457600080fd5b6000600160003373ffffffffffffffffffffffffffffffffffffffff1673ffffffffffffffffffffffffffffffffffffffff16815260200190815260200160002060000154905082600160003373ffffffffffffffffffffffffffffffffffffffff1673ffffffffffffffffffffffffffffffffffffffff168152602001908152602001600020600101600083815260200190815260200160002060010190805190602001906106d5929190610852565b5042600160003373ffffffffffffffffffffffffffffffffffffffff1673ffffffffffffffffffffffffffffffffffffffff16815260200190815260200160002060010160008381526020019081526020016000206002018190555060018101600160003373ffffffffffffffffffffffffffffffffffffffff1673ffffffffffffffffffffffffffffffffffffffff168152602001908152602001600020600001819055503373ffffffffffffffffffffffffffffffffffffffff167feb55a622d3a07c53b40d70f9357c78a8dfd290564045dafcd82eb73fefd87133846040518080602001828103825283818151815260200191508051906020019080838360005b838110156107f45780820151818401526020810190506107d9565b50505050905090810190601f1680156108215780820380516001836020036101000a031916815260200191505b509250505060405180910390a2505050565b61083b61043f565b151561084657600080fd5b61084f81610833565b50565b828054600181600116156101000203166002900490600052602060002090601f016020900481019282601f1061089357805160ff19168380011785556108c1565b828001600101855582156108c1579182015b828111156108c05782518255916020019190600101906108a5565b5b5090506108ce91906108d2565b5090565b6108f491905b808211156108f05760008160009055506001016108d8565b5090565b9056fea165627a7a72305820c05dab57ca0e7469245e139487f9eb6c5bfd669273cccb1edb3ab026fae285180029",
  "source": "pragma solidity ^0.5.0;\n\nimport \"./Ownable.sol\";\n\ncontract Existence is Ownable {\n    mapping (address =>ExistenceOwner) existenceOwner;\n    struct ExistenceOwner {\n        uint totalExistences;\n        mapping(uint => Existance) existences;\n    }\n    bool eStop;\n\n    struct Existance{\n        uint id;\n        string hash;\n        uint dateTimestamp;\n    }\n\n    event LogCreateExistence(address indexed _from, string _hash);\n\n    constructor()  public{\n\n        eStop = false;\n    }\n\n    modifier isStopped() {\n        require(eStop != true);\n        _;\n     }\n\n\n     function toggleEStop() public onlyOwner{\n          eStop = !eStop;\n     }\n\n\n    function addExistence(string memory _existenceHash)  public isStopped{\n\n        bytes memory inputLength = bytes(_existenceHash);\n        require(inputLength.length == 46 );\n\n\n        uint _totalExistences = existenceOwner[msg.sender].totalExistences;\n\n\n        existenceOwner[msg.sender].existences[_totalExistences].hash = _existenceHash;\n        existenceOwner[msg.sender].existences[_totalExistences].dateTimestamp= now;\n        existenceOwner[msg.sender].totalExistences = _totalExistences + 1;\n        emit LogCreateExistence(msg.sender, _existenceHash);\n     }\n\n\n     function getTotalExistences() public  view returns (uint totalExistences){\n        return existenceOwner[msg.sender].totalExistences;\n     }\n\n\n     function getSingleExistanceHash(uint _id) public view returns (string memory _ipfsHash, uint dateTimestamp){\n         return(\n             existenceOwner[msg.sender].existences[_id].hash,\n             existenceOwner[msg.sender].existences[_id].dateTimestamp\n             );\n     }\n\n   }\n",
  "sourcePath": "/Users/raxxcoin/proof_of_existence/contracts/Existence.sol",
  "compiler": {
    "name": "solc",
    "version": "0.5.0+commit.1d4f565a.Emscripten.clang"
  },
  "schemaVersion": "3.0.1",
  "updatedAt": "2019-01-27T20:41:33.684Z",
  "devdoc": {
    "methods": {
      "isOwner()": {
        "return": "true if `msg.sender` is the owner of the contract."
      },
      "renounceOwnership()": {
        "details": "Allows the current owner to relinquish control of the contract."
      },
      "transferOwnership(address)": {
        "details": "Allows the current owner to transfer control of the contract to a newOwner.",
        "params": {
          "newOwner": "The address to transfer ownership to."
        }
      }
    }
  },
  "userdoc": {
    "methods": {
      "renounceOwnership()": {
        "notice": "Renouncing to ownership will leave the contract without an owner. It will not be possible to call the functions with the `onlyOwner` modifier anymore."
      }
    }
  }
}